{
  "_format": "hh-sol-artifact-1",
  "contractName": "HerbChain",
  "sourceName": "contracts/HerbChain.sol",
  "abi": [
    {
      "anonymous": false,
      "inputs": [
        {
          "indexed": false,
          "internalType": "uint256",
          "name": "id",
          "type": "uint256"
        },
        {
          "indexed": false,
          "internalType": "string",
          "name": "name",
          "type": "string"
        },
        {
          "indexed": false,
          "internalType": "address",
          "name": "farmer",
          "type": "address"
        }
      ],
      "name": "BatchCreated",
      "type": "event"
    },
    {
      "anonymous": false,
      "inputs": [
        {
          "indexed": false,
          "internalType": "uint256",
          "name": "id",
          "type": "uint256"
        },
        {
          "indexed": false,
          "internalType": "uint8",
          "name": "newStage",
          "type": "uint8"
        }
      ],
      "name": "StageUpdated",
      "type": "event"
    },
    {
      "inputs": [
        {
          "internalType": "uint256",
          "name": "",
          "type": "uint256"
        }
      ],
      "name": "batches",
      "outputs": [
        {
          "internalType": "uint256",
          "name": "id",
          "type": "uint256"
        },
        {
          "internalType": "string",
          "name": "name",
          "type": "string"
        },
        {
          "internalType": "string",
          "name": "farmLocation",
          "type": "string"
        },
        {
          "internalType": "string",
          "name": "harvestDate",
          "type": "string"
        },
        {
          "internalType": "string",
          "name": "imageCID",
          "type": "string"
        },
        {
          "internalType": "address",
          "name": "farmer",
          "type": "address"
        },
        {
          "internalType": "uint8",
          "name": "stage",
          "type": "uint8"
        },
        {
          "internalType": "bool",
          "name": "exists",
          "type": "bool"
        }
      ],
      "stateMutability": "view",
      "type": "function"
    },
    {
      "inputs": [
        {
          "internalType": "string",
          "name": "_name",
          "type": "string"
        },
        {
          "internalType": "string",
          "name": "_location",
          "type": "string"
        },
        {
          "internalType": "string",
          "name": "_date",
          "type": "string"
        },
        {
          "internalType": "string",
          "name": "_cid",
          "type": "string"
        }
      ],
      "name": "createBatch",
      "outputs": [],
      "stateMutability": "nonpayable",
      "type": "function"
    },
    {
      "inputs": [
        {
          "internalType": "uint256",
          "name": "_id",
          "type": "uint256"
        }
      ],
      "name": "getBatchDetails",
      "outputs": [
        {
          "internalType": "string",
          "name": "",
          "type": "string"
        },
        {
          "internalType": "string",
          "name": "",
          "type": "string"
        },
        {
          "internalType": "string",
          "name": "",
          "type": "string"
        },
        {
          "internalType": "string",
          "name": "",
          "type": "string"
        },
        {
          "internalType": "address",
          "name": "",
          "type": "address"
        },
        {
          "internalType": "uint8",
          "name": "",
          "type": "uint8"
        }
      ],
      "stateMutability": "view",
      "type": "function"
    },
    {
      "inputs": [],
      "name": "nextBatchId",
      "outputs": [
        {
          "internalType": "uint256",
          "name": "",
          "type": "uint256"
        }
      ],
      "stateMutability": "view",
      "type": "function"
    },
    {
      "inputs": [
        {
          "internalType": "uint256",
          "name": "_id",
          "type": "uint256"
        },
        {
          "internalType": "uint8",
          "name": "_newStage",
          "type": "uint8"
        }
      ],
      "name": "updateStage",
      "outputs": [],
      "stateMutability": "nonpayable",
      "type": "function"
    }
  ],
  "bytecode": "0x6080604052606560015534801561001557600080fd5b5061147d806100256000396000f3fe608060405234801561001057600080fd5b50600436106100575760003560e01c80638462a7f81461005c5780639d47dcc01461007a578063b32c4d8d146100af578063f405c96b146100e6578063f8d78a8214610102575b600080fd5b61006461011e565b6040516100719190610a28565b60405180910390f35b610094600480360381019061008f9190610a83565b610124565b6040516100a696959493929190610b9d565b60405180910390f35b6100c960048036038101906100c49190610a83565b610481565b6040516100dd989796959493929190610c35565b60405180910390f35b61010060048036038101906100fb9190610cfb565b610723565b005b61011c60048036038101906101179190610e70565b61085a565b005b60015481565b60608060608060008060008088815260200190815260200160002060050160159054906101000a900460ff1661018f576040517f08c379a000000000000000000000000000000000000000000000000000000000815260040161018690610f93565b60405180910390fd5b6000808881526020019081526020016000206001016000808981526020019081526020016000206002016000808a81526020019081526020016000206003016000808b81526020019081526020016000206004016000808c815260200190815260200160002060050160009054906101000a900473ffffffffffffffffffffffffffffffffffffffff166000808d815260200190815260200160002060050160149054906101000a900460ff1685805461024890610fe2565b80601f016020809104026020016040519081016040528092919081815260200182805461027490610fe2565b80156102c15780601f10610296576101008083540402835291602001916102c1565b820191906000526020600020905b8154815290600101906020018083116102a457829003601f168201915b505050505095508480546102d490610fe2565b80601f016020809104026020016040519081016040528092919081815260200182805461030090610fe2565b801561034d5780601f106103225761010080835404028352916020019161034d565b820191906000526020600020905b81548152906001019060200180831161033057829003601f168201915b5050505050945083805461036090610fe2565b80601f016020809104026020016040519081016040528092919081815260200182805461038c90610fe2565b80156103d95780601f106103ae576101008083540402835291602001916103d9565b820191906000526020600020905b8154815290600101906020018083116103bc57829003601f168201915b505050505093508280546103ec90610fe2565b80601f016020809104026020016040519081016040528092919081815260200182805461041890610fe2565b80156104655780601f1061043a57610100808354040283529160200191610465565b820191906000526020600020905b81548152906001019060200180831161044857829003601f168201915b5050505050925095509550955095509550955091939550919395565b60006020528060005260406000206000915090508060000154908060010180546104aa90610fe2565b80601f01602080910402602001604051908101604052809291908181526020018280546104d690610fe2565b80156105235780601f106104f857610100808354040283529160200191610523565b820191906000526020600020905b81548152906001019060200180831161050657829003601f168201915b50505050509080600201805461053890610fe2565b80601f016020809104026020016040519081016040528092919081815260200182805461056490610fe2565b80156105b15780601f10610586576101008083540402835291602001916105b1565b820191906000526020600020905b81548152906001019060200180831161059457829003601f168201915b5050505050908060030180546105c690610fe2565b80601f01602080910402602001604051908101604052809291908181526020018280546105f290610fe2565b801561063f5780601f106106145761010080835404028352916020019161063f565b820191906000526020600020905b81548152906001019060200180831161062257829003601f168201915b50505050509080600401805461065490610fe2565b80601f016020809104026020016040519081016040528092919081815260200182805461068090610fe2565b80156106cd5780601f106106a2576101008083540402835291602001916106cd565b820191906000526020600020905b8154815290600101906020018083116106b057829003601f168201915b5050505050908060050160009054906101000a900473ffffffffffffffffffffffffffffffffffffffff16908060050160149054906101000a900460ff16908060050160159054906101000a900460ff16905088565b60008083815260200190815260200160002060050160159054906101000a900460ff16610785576040517f08c379a000000000000000000000000000000000000000000000000000000000815260040161077c9061105f565b60405180910390fd5b60008083815260200190815260200160002060050160149054906101000a900460ff1660ff168160ff16116107ef576040517f08c379a00000000000000000000000000000000000000000000000000000000081526004016107e6906110cb565b60405180910390fd5b8060008084815260200190815260200160002060050160146101000a81548160ff021916908360ff1602179055507fe07678ebda9ff268c2c8531bb0ebfc488d9fa7067d919572337a14a72c3aa0b7828260405161084e9291906110eb565b60405180910390a15050565b60405180610100016040528060015481526020018581526020018481526020018381526020018281526020013373ffffffffffffffffffffffffffffffffffffffff168152602001600060ff1681526020016001151581525060008060015481526020019081526020016000206000820151816000015560208201518160010190816108e691906112c0565b5060408201518160020190816108fc91906112c0565b50606082015181600301908161091291906112c0565b50608082015181600401908161092891906112c0565b5060a08201518160050160006101000a81548173ffffffffffffffffffffffffffffffffffffffff021916908373ffffffffffffffffffffffffffffffffffffffff16021790555060c08201518160050160146101000a81548160ff021916908360ff16021790555060e08201518160050160156101000a81548160ff0219169083151502179055509050507f195a26ecf0c9b8fb957ecc3a7c029ce84849279de600e16f205ee789052052b660015485336040516109e993929190611392565b60405180910390a160016000815480929190610a04906113ff565b919050555050505050565b6000819050919050565b610a2281610a0f565b82525050565b6000602082019050610a3d6000830184610a19565b92915050565b6000604051905090565b600080fd5b600080fd5b610a6081610a0f565b8114610a6b57600080fd5b50565b600081359050610a7d81610a57565b92915050565b600060208284031215610a9957610a98610a4d565b5b6000610aa784828501610a6e565b91505092915050565b600081519050919050565b600082825260208201905092915050565b60005b83811015610aea578082015181840152602081019050610acf565b60008484015250505050565b6000601f19601f8301169050919050565b6000610b1282610ab0565b610b1c8185610abb565b9350610b2c818560208601610acc565b610b3581610af6565b840191505092915050565b600073ffffffffffffffffffffffffffffffffffffffff82169050919050565b6000610b6b82610b40565b9050919050565b610b7b81610b60565b82525050565b600060ff82169050919050565b610b9781610b81565b82525050565b600060c0820190508181036000830152610bb78189610b07565b90508181036020830152610bcb8188610b07565b90508181036040830152610bdf8187610b07565b90508181036060830152610bf38186610b07565b9050610c026080830185610b72565b610c0f60a0830184610b8e565b979650505050505050565b60008115159050919050565b610c2f81610c1a565b82525050565b600061010082019050610c4b600083018b610a19565b8181036020830152610c5d818a610b07565b90508181036040830152610c718189610b07565b90508181036060830152610c858188610b07565b90508181036080830152610c998187610b07565b9050610ca860a0830186610b72565b610cb560c0830185610b8e565b610cc260e0830184610c26565b9998505050505050505050565b610cd881610b81565b8114610ce357600080fd5b50565b600081359050610cf581610ccf565b92915050565b60008060408385031215610d1257610d11610a4d565b5b6000610d2085828601610a6e565b9250506020610d3185828601610ce6565b9150509250929050565b600080fd5b600080fd5b7f4e487b7100000000000000000000000000000000000000000000000000000000600052604160045260246000fd5b610d7d82610af6565b810181811067ffffffffffffffff82111715610d9c57610d9b610d45565b5b80604052505050565b6000610daf610a43565b9050610dbb8282610d74565b919050565b600067ffffffffffffffff821115610ddb57610dda610d45565b5b610de482610af6565b9050602081019050919050565b82818337600083830152505050565b6000610e13610e0e84610dc0565b610da5565b905082815260208101848484011115610e2f57610e2e610d40565b5b610e3a848285610df1565b509392505050565b600082601f830112610e5757610e56610d3b565b5b8135610e67848260208601610e00565b91505092915050565b60008060008060808587031215610e8a57610e89610a4d565b5b600085013567ffffffffffffffff811115610ea857610ea7610a52565b5b610eb487828801610e42565b945050602085013567ffffffffffffffff811115610ed557610ed4610a52565b5b610ee187828801610e42565b935050604085013567ffffffffffffffff811115610f0257610f01610a52565b5b610f0e87828801610e42565b925050606085013567ffffffffffffffff811115610f2f57610f2e610a52565b5b610f3b87828801610e42565b91505092959194509250565b7f4261746368206e6f7420666f756e640000000000000000000000000000000000600082015250565b6000610f7d600f83610abb565b9150610f8882610f47565b602082019050919050565b60006020820190508181036000830152610fac81610f70565b9050919050565b7f4e487b7100000000000000000000000000000000000000000000000000000000600052602260045260246000fd5b60006002820490506001821680610ffa57607f821691505b60208210810361100d5761100c610fb3565b5b50919050565b7f426174636820646f6573206e6f74206578697374210000000000000000000000600082015250565b6000611049601583610abb565b915061105482611013565b602082019050919050565b600060208201905081810360008301526110788161103c565b9050919050565b7f43616e6e6f7420676f206261636b776172647321000000000000000000000000600082015250565b60006110b5601483610abb565b91506110c08261107f565b602082019050919050565b600060208201905081810360008301526110e4816110a8565b9050919050565b60006040820190506111006000830185610a19565b61110d6020830184610b8e565b9392505050565b60008190508160005260206000209050919050565b60006020601f8301049050919050565b600082821b905092915050565b6000600883026111767fffffffffffffffffffffffffffffffffffffffffffffffffffffffffffffffff82611139565b6111808683611139565b95508019841693508086168417925050509392505050565b6000819050919050565b60006111bd6111b86111b384610a0f565b611198565b610a0f565b9050919050565b6000819050919050565b6111d7836111a2565b6111eb6111e3826111c4565b848454611146565b825550505050565b600090565b6112006111f3565b61120b8184846111ce565b505050565b5b8181101561122f576112246000826111f8565b600181019050611211565b5050565b601f8211156112745761124581611114565b61124e84611129565b8101602085101561125d578190505b61127161126985611129565b830182611210565b50505b505050565b600082821c905092915050565b600061129760001984600802611279565b1980831691505092915050565b60006112b08383611286565b9150826002028217905092915050565b6112c982610ab0565b67ffffffffffffffff8111156112e2576112e1610d45565b5b6112ec8254610fe2565b6112f7828285611233565b600060209050601f83116001811461132a5760008415611318578287015190505b61132285826112a4565b86555061138a565b601f19841661133886611114565b60005b828110156113605784890151825560018201915060208501945060208101905061133b565b8683101561137d5784890151611379601f891682611286565b8355505b6001600288020188555050505b505050505050565b60006060820190506113a76000830186610a19565b81810360208301526113b98185610b07565b90506113c86040830184610b72565b949350505050565b7f4e487b7100000000000000000000000000000000000000000000000000000000600052601160045260246000fd5b600061140a82610a0f565b91507fffffffffffffffffffffffffffffffffffffffffffffffffffffffffffffffff820361143c5761143b6113d0565b5b60018201905091905056fea2646970667358221220995e75ae51ffb3b05f363a7c070370acc3e1baf9e204f9d2736d8b040147bae164736f6c63430008180033",
  "linkReferences": {},
  "deployedLinkReferences": {}
}